:100000000C9408120C9429120C9429120C942912A5
:100010000C9429120C9429120C9429120C94291274
:100020000C9429120C9429120C9429120C94291264
:100030000C9429120C9429120C9429120C94291254
:100040000C9429120C9429120C9429120C94291244
:100050000C9429120C9429120C9429120C944740E8
:100060000C9429120C9429120C9429120C94291224
:100070000C9429120C9429120C9429120C94291214
:100080000C9429120C9429120C9429120C94291204
:100090000C9429120C9429120C9429120C942912F4
:1000A0000C9429120C9429120C9429120C942912E4
:1000B0000C9429120C9429120C9429120C942912D4
:1000C0000C9429120C9429120C9429120C942912C4
:1000D0000C9429120C9429120C9429120C942912B4
:1000E0000C942912FF340235F134F534FB343935E0
:1000F00006350A351035143518351E3522352635A6
:1001000039352C35303534356F3F743F793F833F77
:100110008D3F0640973F9F3FA73FB13FBB3FC53F45
:10012000D43FDE3F0640E83FF23FFC3F11007F78BE
:10013000B103053C3CB203053C3CB306053C3C0521
:100140003C3CB40103C003280804C101C0C2020D35
:1001500000C3028D2AC4028DEEC5011AE0100322ED
:10016000070A2E30252A28262E3A00010313E11013
:100170000416060D2D26232727252D3B00010413E9
:100180003A01057F96290011007F14D00307421819
:10019000D103000710D2020102C005103B0002117A
:1001A000C50103C80C003236450616377577540C66
:1001B0000036010A3A01552A040000013F2B0400D1
:1001C0000001E07F782900F704A9512C82C00211B8
:1001D00009C10141C503000A80B102B011B4010296
:1001E000B6020222B701C6BE020004E901003601D0
:1001F000083A0155E00F00071009170B41894B0A17
:100200000C0E181B0FE10F00171A040E062F4543A2
:10021000020A0932360F11007F782900F1063604F0
:10022000003C0F8FF20918A31202B212FF1000F85F
:10023000022104F9020008360108B40100C101419D
:10024000C50400918000E00F0F1F1C0C0F08489898
:10025000370A1304110D00E10F0F322E0B0D054765
:1002600075370610032420003A0155110036012885
:100270007F7829002E018929018F2B0102E20100DC
:10028000E40101E50110E60101E70110E80170F267
:100290000100EA0100EB0120EC013CED01C8E9019D
:1002A00038F101011B011A1A010124016125015CC9
:1002B0002301881801361901011F01887F051F01DC
:1002C000807F051F01907F051F01D47F0517010561
:1002D0003601002801387F2828013C020100030173
:1002E000000401000501EF060100070100080101FB
:1002F00009013F0100B903FF83577FFAB3040000EF
:100300000606B60125B00168CC0105B10600151C32
:100310001C83AAC0065050013C1E08B407024000CE
:100320002A2A0D783A01553601C0350100440200F1
:100330000211007F9629007F3201007F322800F6EB
:1003400003010100CF03008130ED0464031281E852
:1003500003851078CB05392C003402F70120EA021E
:100360000000B00100B40100C00121C10111C502AB
:100370003F3CC701B53601883A0155B102001B3632
:100380000148F20100260101E00F0F26240B0E099F
:1003900054A8460C17090F0700E10F00191B0410A1
:1003A000072A473903060630380FB7010711007FC7
:1003B00096290000000100FFFF3200010000010249
:1003C00000000703003010040000000800020209CA
:1003D0000000000A0000000C0000000D0000000FEB
:1003E00000000010000000110007001200000013C0
:1003F000000000FFFFC8001000901611002702FF48
:10040000FF320012001A00FFFF320013000018290B
:10041000002A00FFFF3200300000003100000032EF
:1004200000000035000602360008083700070038D3
:10043000000102390000003C0000003D00000020E7
:1004400000000021000000500000005100EF0052A9
:1004500000000053003F01600000A7610003006A34
:10046000000000900010009200000093000300952F
:1004700000001197000000980000000700330150B1
:100480007265737320616E7920627574746F6E206B
:10049000746F20636F6E74696E7565004D6978695D
:1004A0006E67205265636970657320506F7373695E
:1004B000626C6500202F20004120546F74616C2015
:1004C0004F66002D004D6978696E672E2E2E00460E
:1004D000696E697368656421004D6978696E672E7D
:1004E0002E2E0026022602260226022602260202BE
:1004F0000304050607507265737320616E792062EC
:100500007574746F6E20746F20636F6E74696E758E
:1005100065004D6978696E672E2E2E002500526F9A
:100520006D0000000000000000000000000000005E
:1005300000000000803F436F6C610000000000007D
:10054000000000000000000000000000003F566FA7
:10055000646B61000000000000000000000000006B
:1005600000000000803F4A756963650000000000DC
:10057000000000000000000000000000803F47690C
:100580006E000000000000000000000000000000FD
:1005900000000000803F546F6E696300000000009F
:1005A000000000000000000000000000003F436168
:1005B0007465676F72696573000C4C657420526FC7
:1005C0006D206F6720436F6C610000000000000029
:1005D00000000000000000000000526F6D000000ED
:1005E000000000000000000000000000000000000B
:1005F000803F1400436F6C610000000000000000A9
:1006000000000000000000000000003F500000005B
:1006100000000000000000000000000000000000DA
:1006200000000000000000000000000000000000CA
:1006300000000000000000000000000000000000BA
:1006400000000000000000000000000000000000AA
:10065000000000000000000000000000000000009A
:10066000000000000000000000000000000000008A
:100670000000000000000201526F6D000000000049
:1006800000000000000000000000000000436F7543
:100690007274657379206F662064756E6E6572730F
:1006A000206472696E6B20696D70657269756D008A
:1006B000000000000000000000000000000000003A
:1006C000000000000000000000000000000000002A
:1006D000000000000000000000000000000000001A
:1006E000000000000000000000000000000000000A
:1006F00000000000000000000000000000000000FA
:1007000000000000000000000000000000000000E9
:1007100000000000000000000000000000000000D9
:1007200000000000000000000000000000000000C9
:1007300000000000000000000000000000000000B9
:1007400000000000000000000000000000000000A9
:100750000000000000000000000000000000000099
:100760000000000000000000000000000000000089
:100770000000000000000000000000000000000079
:10078000000000000000000000000000004E6F723A
:100790006D616C20526F6D206F6720436F6C61003C
:1007A00000000000000000000000000000526F6D1B
:1007B0000000000000000000000000000000000039
:1007C000000000803F1E00436F6C610000000000CD
:1007D00000000000000000000000000000003F4694
:1007E0000000000000000000000000000000000009
:1007F00000000000000000000000000000000000F9
:1008000000000000000000000000000000000000E8
:1008100000000000000000000000000000000000D8
:1008200000000000000000000000000000000000C8
:1008300000000000000000000000000000000000B8
:100840000000000000000000000201526F6D000077
:100850000000000000000000000000000000000098
:10086000436F757274657379206F662064756E6E60
:10087000657273206472696E6B20696D7065726950
:10088000756D000000000000000000000000000086
:100890000000000000000000000000000000000058
:1008A0000000000000000000000000000000000048
:1008B0000000000000000000000000000000000038
:1008C0000000000000000000000000000000000028
:1008D0000000000000000000000000000000000018
:1008E0000000000000000000000000000000000008
:1008F00000000000000000000000000000000000F8
:1009000000000000000000000000000000000000E7
:1009100000000000000000000000000000000000D7
:1009200000000000000000000000000000000000C7
:1009300000000000000000000000000000000000B7
:1009400000000000000000000000000000000000A7
:100950000000000000000000000000000000000097
:1009600053746165726B20526F6D206F6720436F07
:100970006C610000000000000000000000000000AA
:10098000526F6D0000000000000000000000000039
:10099000000000000000803F2800436F6C610000F1
:1009A0000000000000000000000000000000000047
:1009B000003F3C00000000000000000000000000BC
:1009C0000000000000000000000000000000000027
:1009D0000000000000000000000000000000000017
:1009E0000000000000000000000000000000000007
:1009F00000000000000000000000000000000000F7
:100A000000000000000000000000000000000000E6
:100A10000000000000000000000000000201526F12
:100A20006D00000000000000000000000000000059
:100A3000000000436F757274657379206F662064DF
:100A4000756E6E657273206472696E6B20696D706D
:100A5000657269756D000000000000000000000074
:100A60000000000000000000000000000000000086
:100A70000000000000000000000000000000000076
:100A80000000000000000000000000000000000066
:100A90000000000000000000000000000000000056
:100AA0000000000000000000000000000000000046
:100AB0000000000000000000000000000000000036
:100AC0000000000000000000000000000000000026
:100AD0000000000000000000000000000000000016
:100AE0000000000000000000000000000000000006
:100AF00000000000000000000000000000000000F6
:100B000000000000000000000000000000000000E5
:100B100000000000000000000000000000000000D5
:100B200000000000000000000000000000000000C5
:100B3000000000524F4D206F6720436F6C61000032
:100B400000000000000000000000000000000000A5
:100B5000000000526F6D0000000000000000000067
:100B6000000000000000000000803F4600436F6C62
:100B70006100000000000000000000000000000014
:100B8000000000003F1E0000000000000000000008
:100B90000000000000000000000000000000000055
:100BA0000000000000000000000000000000000045
:100BB0000000000000000000000000000000000035
:100BC0000000000000000000000000000000000025
:100BD0000000000000000000000000000000000015
:100BE0000000000000000000000000000000000203
:100BF00001526F6D000000000000000000000000C6
:100C0000000000000000436F757274657379206FF7
:100C1000662064756E6E657273206472696E6B20F7
:100C2000696D70657269756D2C207375696369648F
:100C3000652065646974696F6E0000000000000043
:100C400000000000000000000000000000000000A4
:100C50000000000000000000000000000000000094
:100C60000000000000000000000000000000000084
:100C70000000000000000000000000000000000074
:100C80000000000000000000000000000000000064
:100C90000000000000000000000000000000000054
:100CA0000000000000000000000000000000000044
:100CB0000000000000000000000000000000000034
:100CC0000000000000000000000000000000000024
:100CD0000000000000000000000000000000000014
:100CE0000000000000000000000000000000000004
:100CF00000000000000000000000000000000000F4
:100D00000000000000004C657420566F646B612D7C
:100D10004A756963650000000000000000000000E3
:100D2000000000000000566F646B610000000000CE
:100D3000000000000000000000000000803F1400E0
:100D40004A756963650000000000000000000000B3
:100D5000000000000000803F500000000000000084
:100D60000000000000000000000000000000000083
:100D70000000000000000000000000000000000073
:100D80000000000000000000000000000000000063
:100D90000000000000000000000000000000000053
:100DA0000000000000000000000000000000000043
:100DB0000000000000000000000000000000000033
:100DC00000000201566F646B61000000000000002B
:100DD0000000000000000000014465736372697048
:100DE00074696F6E00000000000000000000000049
:100DF00000000000000000000000000000000000F3
:100E000000000000000000000000000000000000E2
:100E100000000000000000000000000000000000D2
:100E200000000000000000000000000000000000C2
:100E300000000000000000000000000000000000B2
:100E400000000000000000000000000000000000A2
:100E50000000000000000000000000000000000092
:100E60000000000000000000000000000000000082
:100E70000000000000000000000000000000000072
:100E80000000000000000000000000000000000062
:100E90000000000000000000000000000000000052
:100EA0000000000000000000000000000000000042
:100EB0000000000000000000000000000000000032
:100EC0000000000000000000000000000000000022
:100ED0000000000000000000004E6F726D616C2089
:100EE000566F646B612D4A756963650000000000F0
:100EF000000000000000000000566F646B610000FD
:100F00000000000000000000000000000000008061
:100F10003F28004A7569636500000000000000007A
:100F2000000000000000000000803F3C00000000C6
:100F300000000000000000000000000000000000B1
:100F400000000000000000000000000000000000A1
:100F50000000000000000000000000000000000091
:100F60000000000000000000000000000000000081
:100F70000000000000000000000000000000000071
:100F80000000000000000000000000000000000061
:100F900000000000000201566F646B610000000059
:100FA00000000000000000000000000144657363C1
:100FB00072697074696F6E0000000000000000002C
:100FC0000000000000000000000000000000000021
:100FD0000000000000000000000000000000000011
:100FE0000000000000000000000000000000000001
:100FF00000000000000000000000000000000000F1
:1010000000000000000000000000000000000000E0
:1010100000000000000000000000000000000000D0
:1010200000000000000000000000000000000000C0
:1010300000000000000000000000000000000000B0
:1010400000000000000000000000000000000000A0
:101050000000000000000000000000000000000090
:101060000000000000000000000000000000000080
:101070000000000000000000000000000000000070
:101080000000000000000000000000000000000060
:101090000000000000000000000000000000000050
:1010A00000000000000000000000000053746165B3
:1010B000726B20566F646B612D4A75696365000021
:1010C000000000000000000000000000566F646B8C
:1010D00061000000000000000000000000000000AF
:1010E0000000803F3C004A75696365000000000015
:1010F000000000000000000000000000803F280009
:1011000000000000000000000000000000000000DF
:1011100000000000000000000000000000000000CF
:1011200000000000000000000000000000000000BF
:1011300000000000000000000000000000000000AF
:10114000000000000000000000000000000000009F
:10115000000000000000000000000000000000008F
:1011600000000000000000000201566F646B610087
:10117000000000000000000000000000000001442A
:1011800065736372697074696F6E0000000000001F
:10119000000000000000000000000000000000004F
:1011A000000000000000000000000000000000003F
:1011B000000000000000000000000000000000002F
:1011C000000000000000000000000000000000001F
:1011D000000000000000000000000000000000000F
:1011E00000000000000000000000000000000000FF
:1011F00000000000000000000000000000000000EF
:1012000000000000000000000000000000000000DE
:1012100000000000000000000000000000000000CE
:1012200000000000000000000000000000000000BE
:1012300000000000000000000000000000000000AE
:10124000000000000000000000000000000000009E
:10125000000000000000000000000000000000008E
:10126000000000000000000000000000000000007E
:101270000000000000000000000000000000004C22
:1012800065742047696E206F6720546F6E69630034
:101290000000000000000000000000000000004707
:1012A000696E000000000000000000000000000067
:1012B0000000000000803F0A00546F6E6963000068
:1012C000000000000000000000000000000000001E
:1012D0003F5A000000000000000000000000000075
:1012E00000000000000000000000000000000000FE
:1012F00000000000000000000000000000000000EE
:1013000000000000000000000000000000000000DD
:1013100000000000000000000000000000000000CD
:1013200000000000000000000000000000000000BD
:101330000000000000000000000000020047696E8D
:10134000000000000000000000000000000000009D
:1013500000024465736372697074696F6E00000007
:10136000000000000000000000000000000000007D
:10137000000000000000000000000000000000006D
:10138000000000000000000000000000000000005D
:10139000000000000000000000000000000000004D
:1013A000000000000000000000000000000000003D
:1013B000000000000000000000000000000000002D
:1013C000000000000000000000000000000000001D
:1013D000000000000000000000000000000000000D
:1013E00000000000000000000000000000000000FD
:1013F00000000000000000000000000000000000ED
:1014000000000000000000000000000000000000DC
:1014100000000000000000000000000000000000CC
:1014200000000000000000000000000000000000BC
:1014300000000000000000000000000000000000AC
:10144000000000000000000000000000000000009C
:1014500000004E6F726D616C2047696E206F6720CF
:10146000546F6E696300000000000000000000007F
:10147000000047696E00000000000000000000004E
:101480000000000000000000803F1400546F6E69EF
:1014900063000000000000000000000000000000E9
:1014A0000000003F500000000000000000000000AD
:1014B000000000000000000000000000000000002C
:1014C000000000000000000000000000000000001C
:1014D000000000000000000000000000000000000C
:1014E00000000000000000000000000000000000FC
:1014F00000000000000000000000000000000000EC
:1015000000000000000000000000000000000200D9
:1015100047696E00000000000000000000000000AD
:1015200000000000024465736372697074696F6E35
:1015300000000000000000000000000000000000AB
:10154000000000000000000000000000000000009B
:10155000000000000000000000000000000000008B
:10156000000000000000000000000000000000007B
:10157000000000000000000000000000000000006B
:10158000000000000000000000000000000000005B
:10159000000000000000000000000000000000004B
:1015A000000000000000000000000000000000003B
:1015B000000000000000000000000000000000002B
:1015C000000000000000000000000000000000001B
:1015D000000000000000000000000000000000000B
:1015E00000000000000000000000000000000000FB
:1015F00000000000000000000000000000000000EB
:1016000000000000000000000000000000000000DA
:1016100000000000000000000000000000000000CA
:10162000000000000053746165726B2047696E20F2
:101630006F6720546F6E69630000000000000000B7
:10164000000000000047696E00000000000000007C
:101650000000000000000000000000803F1E005459
:101660006F6E6963000000000000000000000000D1
:101670000000000000003F460000000000000000E5
:10168000000000000000000000000000000000005A
:10169000000000000000000000000000000000004A
:1016A000000000000000000000000000000000003A
:1016B000000000000000000000000000000000002A
:1016C000000000000000000000000000000000001A
:1016D000000000000000000000000000000000000A
:1016E00000020047696E00000000000000000000DA
:1016F00000000000000000024465736372697074AA
:10170000696F6E0000000000000000000000000093
:1017100000000000000000000000000000000000C9
:1017200000000000000000000000000000000000B9
:1017300000000000000000000000000000000000A9
:101740000000000000000000000000000000000099
:101750000000000000000000000000000000000089
:101760000000000000000000000000000000000079
:101770000000000000000000000000000000000069
:101780000000000000000000000000000000000059
:101790000000000000000000000000000000000049
:1017A0000000000000000000000000000000000039
:1017B0000000000000000000000000000000000029
:1017C0000000000000000000000000000000000019
:1017D0000000000000000000000000000000000009
:1017E00000000000000000000000000000000000F9
:1017F0000000000000000000496E697469616C69B6
:101800007A652050756D70730000000000000000C4
:101810000000000000000000526F6D00000000009A
:101820000000000000000000000000000000803FF9
:101830001400436F6C610000000000000000000015
:101840000000000000000000003F1400566F646BB1
:101850006100000000000000000000000000000027
:101860000000803F14004A756963650000000000B5
:10187000000000000000000000000000803F140095
:1018800047696E000000000000000000000000003A
:10189000000000000000803F1400546F6E69630078
:1018A0000000000000000000000000000000000038
:1018B000003F14000601496E647374696C6C696EB4
:1018C0006765720000000000000003496E697469DA
:1018D000616C6C792070756D702061206C69747416
:1018E0006C6520626974206F66206C69717569642B
:1018F00020696E746F20746865207069706573006C
:1019000000000000000000000000000000000000D7
:1019100000000000000000000000000000000000C7
:1019200000000000000000000000000000000000B7
:1019300000000000000000000000000000000000A7
:101940000000000000000000000000000000000097
:101950000000000000000000000000000000000087
:101960000000000000000000000000000000000077
:101970000000000000000000000000000000000067
:101980000000000000000000000000000000000057
:101990000000000000000000000000000000000047
:1019A0000000000000000000000000000000000037
:1019B0000000000000000000000000000000000027
:1019C0000000000000000000000000507572676514
:1019D0002053797374656D00000000000000000062
:1019E0000000000000000000000000526F6D0000C9
:1019F00000000000000000000000000000000000E7
:101A000000803F6400436F6C610000000000000034
:101A10000000000000000000000000003F640056CD
:101A20006F646B6100000000000000000000000017
:101A30000000000000803F64004A75696365000093
:101A40000000000000000000000000000000008016
:101A50003F640047696E00000000000000000000C5
:101A6000000000000000000000803F6400546F6E22
:101A7000696300000000000000000000000000009A
:101A8000000000003F64000601496E647374696CD5
:101A90006C696E6765720000000000000003456D10
:101AA00070747920616C6C2070756D707320616E3C
:101AB0006420706970657300000000000000000081
:101AC0000000000000000000000000000000000016
:101AD0000000000000000000000000000000000006
:101AE00000000000000000000000000000000000F6
:101AF00000000000000000000000000000000000E6
:101B000000000000000000000000000000000000D5
:101B100000000000000000000000000000000000C5
:101B200000000000000000000000000000000000B5
:101B300000000000000000000000000000000000A5
:101B40000000000000000000000000000000000095
:101B50000000000000000000000000000000000085
:101B60000000000000000000000000000000000075
:101B70000000000000000000000000000000000065
:101B80000000000000000000000000000000000055
:101B9000000000000000000000000000000054658C
:101BA00073742070756D707320312062792031005C
:101BB0000000000000000000000000000000526F64
:101BC0006D000000000000000000000000000000A8
:101BD00000000000803F6400436F6C610000000063
:101BE0000000000000000000000000000000003FB6
:101BF0006400566F646B610000000000000000008C
:101C00000000000000000000803F64004A75696326
:101C1000650000000000000000000000000000005F
:101C20000000803F640047696E0000000000000073
:101C3000000000000000000000000000803F640081
:101C4000546F6E6963000000000000000000000097
:101C5000000000000000003F64000600496E64734D
:101C600074696C6C696E67657200000000000000AA
:101C70000352756E207468652070756D7073203125
:101C8000206279203120746F207465737420746829
:101C9000656D000000000000000000000000000072
:101CA0000000000000000000000000000000000034
:101CB0000000000000000000000000000000000024
:101CC0000000000000000000000000000000000014
:101CD0000000000000000000000000000000000004
:101CE00000000000000000000000000000000000F4
:101CF00000000000000000000000000000000000E4
:101D000000000000000000000000000000000000D3
:101D100000000000000000000000000000000000C3
:101D200000000000000000000000000000000000B3
:101D300000000000000000000000000000000000A3
:101D40000000000000000000000000000000000093
:101D50000000000000000000000000000000000083
:101D60000000000000000000000000000000000073
:101D700000526F6D00000000000000000000000035
:101D8000000000000000566F646B6100000000005E
:101D9000000000000000000000000147696E000024
:101DA0000000000000000000000000000000000231
:101DB000496E647374696C6C696E676572000000CB
:101DC00000000000030343617465676F7269657307
:101DD0000000002100240027002A002D00300033DD
:101DE0000001010000040107010A01000022002592
:101DF0000028002B002E00310034000201000005F5
:101E00000108010B01000020002300260029002CFE
:101E1000002F003200000100000301060109010546
:101E2000050505070508080808020202020A0A0853
:101E30000804040404010101010101010103030379
:101E40000303030303040707070C0C0C0C0C0C0C16
:101E50000C0202020206060606060606060B0B0B1D
:101E60000B0B0B0B0B010210202008081020401058
:101E7000204080020102010804020101020408104E
:101E8000204080804020100804020180040201806C
:101E90004020100804020108040201010204081095
:101EA000204080010204081020408000000A0B023C
:101EB000090C0D0E080703040100000000000000DB
:101EC0000000000000000000000000000000000012
:101ED00000000000000000121110000000000000CF
:101EE00000000000000000000000000000000000F2
:101EF00000FA00960032003B0240024702023C2DED
:101F00002D2020202020454E5445522020202020E6
:101F10002D2D3E0000000000003E5B4F5B3E3E6BFF
:101F20004F6B3E1C3E7C3E1C183C7E3C181C577D73
:101F3000571C1C5E7F5E1C00183C1800FFE7C3E7BF
:101F4000FF0018241800FFE7DBE7FF30483A060ED1
:101F50002629792926407F050507407F05253F5A18
:101F60003CE73C5A7F3E1C1C08081C1C3E7F142288
:101F70007F22145F5F005F5F06097F017F00668933
:101F8000956A606060606094A2FFA29408047E0479
:101F90000810207E201008082A1C08081C2A08089F
:101FA0001E101010100C1E0C1E0C30383E3830065F
:101FB0000E3E0E06000000000000005F000000075B
:101FC000000700147F147F14242A7F2A1223130889
:101FD000646236495620500008070300001C224165
:101FE000000041221C002A1C7F1C2A08083E080809
:101FF00000807030000808080808000060600020B9
:10200000100804023E5149453E00427F400072499B
:102010004949462141494D331814127F102745453F
:1020200045393C4A49493141211109073649494955
:1020300036464949291E00001400000040340000C3
:10204000000814224114141414140041221408022C
:10205000015909063E415D594E7C1211127C7F499F
:102060004949363E414141227F4141413E7F4949F4
:1020700049417F090909013E414151737F08080820
:102080007F00417F41002040413F017F08142241F1
:102090007F404040407F021C027F7F0408107F3E4B
:1020A0004141413E7F090909063E4151215E7F09B8
:1020B000192946264949493203017F01033F40401F
:1020C000403F1F2040201F3F4038403F631408140A
:1020D0006303047804036159494D43007F41414142
:1020E0000204081020004141417F04020102044023
:1020F00040404040000307080020545478407F28A7
:102100004444383844444428384444287F3854549C
:10211000541800087E090218A4A49C787F080404BF
:102120007800447D40002040403D007F102844005E
:1021300000417F40007C047804787C0804047838EF
:1021400044444438FC1824241818242418FC7C081F
:10215000040408485454542404043F44243C40409C
:10216000207C1C2040201C3C4030403C442810284F
:10217000444C9090907C4464544C44000836410098
:102180000000770000004136080002010204023C12
:102190002623263C1EA1A161123A4040207A3854E1
:1021A000545559215555794121545478412155545C
:1021B000784020545579400C1E52721239555555AD
:1021C00059395454545939555454580000457C4198
:1021D0000002457D420001457C40F0292429F0F0B1
:1021E000282528F07C545545002054547C547C0A02
:1021F000097F4932494949323248484832324A48CF
:1022000048303A4141217A3A42402078009DA0A0CE
:102210007D39444444393D4040403D3C24FF242422
:10222000487E4943662B2FFC2F2BFF0929F620C03F
:10223000887E090320545479410000447D41304890
:10224000484A32384040227A007A0A0A727D0D19D3
:10225000317D2629292F28262929292630484D4035
:1022600020380808080808080808382F10C8ACBA31
:102270002F102834FA00007B000008142A142222B0
:10228000142A1408AA005500AAAA55AA55AA0000A3
:1022900000FF00101010FF00141414FF001010FFB6
:1022A00000FF1010F010F0141414FC001414F700C8
:1022B000FF0000FF00FF1414F404FC141417101F97
:1022C00010101F101F1414141F00101010F0000025
:1022D00000001F101010101F10101010F010000040
:1022E00000FF101010101010101010FF1000000050
:1022F000FF140000FF00FF00001F10170000FC0487
:10230000F414141710171414F404F40000FF00F769
:1023100014141414141414F700F7141414171410CC
:10232000101F101F141414F4141010F010F00000FB
:102330001F101F0000001F14000000FC140000F01C
:1023400010F01010FF10FF141414FF141010101FC1
:1023500000000000F010FFFFFFFFFFF0F0F0F0F0D2
:10236000FFFFFF0000000000FFFF0F0F0F0F0F38EF
:10237000444438447C2A2A3E147E02020606027E29
:10238000027E0263554941633844443C04407E2048
:102390001E2006027E020299A5E7A5991C2A492A59
:1023A0001C4C7201724C304A4D4D303048784830E8
:1023B000BC625A463D3E494949007E0101017E2AE0
:1023C0002A2A2A2A44445F444440514A4440404413
:1023D0004A51400000FF0103E080FF000008086B45
:1023E0006B083612362436060F090F06000018183F
:1023F0000000001010003040FF0101001F01011E0D
:1024000000191D1712003C3C3C3C0000000000007D
:1024100011241FBECFEFD1E2DEBFCDBF00E00CBF65
:1024200022E0AEE4B2E001C01D92AC35B207E1F7A4
:1024300012E0A0E0B2E0ECE9F3EA00E00BBF02C07A
:1024400007900D92AE34B107D9F70E947B4C0C94E3
:10245000CC510C940000CF93DF93FC01A6A5B7A547
:102460009C9182AD89238C93A0A9B1A99C9183AD45
:1024700089238C9372B968B9A2A9B3A99C9184AD40
:1024800089238C93A2A9B3A99C9180AD892B8C93AD
:10249000A0A9B1A99C9187A9892B8C93DA019FEF00
:1024A000920F1216A4F58D9188B9C2A9D3A92881DB
:1024B00084AD82238883C2A9D3A9288180AD822BD1
:1024C0008883911102C0292FEACF208D318D2130D0
:1024D0003105C9F76F5F7F4FC0A9D1A9288183ADAE
:1024E0008223888372B968B9C2A9D3A9288184AD2F
:1024F00082238883C2A9D3A9288180AD822B8883B7
:10250000C0A9D1A9288187A9822B8883DCCFA6A561
:10251000B7A59C9186A9892B8C93DF91CF910895C3
:10252000AF92BF92CF92DF92EF92FF920F931F93E1
:10253000CF93DF93CDB7DEB728970FB6F894DEBF01
:102540000FBECDBF7C01DC019E96ED91FC919F9763
:102550009081DA968C91DA978923808358968D91B1
:102560009C915997009709F025C256968D919C91A0
:10257000579782309105A9F08330910559F1019761
:10258000E1F51E968D919C911F970197DC01A01B90
:10259000B10B841B950BFB01D82EC92E89019C0120
:1025A00016C0F701868597850197DC01A21BB30B46
:1025B0009C01261B370B808991890197BC01601B08
:1025C000710B8C01041B150BF801D22EC32EAB012D
:1025D000BD0116C0D70150968D919C9151970197DE
:1025E000DC01A21BB30B861B970BFC01D42EC52E5E
:1025F00098018C01BA01AD0103C0FA01D62EC72E95
:10260000D701D096AD90BC90D197D5019C91D701C0
:10261000DB968C918923D5018C9312B880E588B91B
:10262000D701D296AD90BC90D397D5019C91D7019C
:10263000DC968C918923D5018C93D701D296AD90ED
:10264000BC90D397D5019C91D701D8968C91892BBA
:10265000D5018C93D701D096AD90BC90D197D50180
:102660009C91D701D7968C91892BD5018C9372B907
:1026700068B9D701D2966D917C91D397DB019C917B
:10268000D701DC968C918923DB018C93D701D296FC
:102690006D917C91D397DB019C91D701D8968C9159
:1026A000892BDB018C93D701D0966D917C91D197CA
:1026B000DB019C91D701DB968C918923DB018C9304
:1026C00012B881E588B9D701D2966D917C91D397E4
:1026D000DB019C91D701DC968C918923DB018C93E3
:1026E000D701D2966D917C91D397DB019C91D70154
:1026F000D8968C91892BDB018C93D701D0966D9164
:102700007C91D197DB019C91D701D7968C91892B35
:10271000DB018C9332B928B9D701D2962D913C9127
:10272000D397D9019C91D701DC968C918923D9014B
:102730008C93D701D2962D913C91D397D9019C913E
:10274000D701D8968C91892BD9018C93D701D0963B
:102750002D913C91D197D9019C91D701DB968C9119
:102760008923D9018C9312B882E588B9D701D29612
:102770002D913C91D397D9019C91D701DC968C91F6
:102780008923D9018C93D701D2962D913C91D3976F
:10279000D9019C91D701D8968C91892BD9018C9322
:1027A000D701D0962D913C91D197D9019C91D70119
:1027B000D7968C91892BD9018C9352B948B9D701FE
:1027C000D2962D913C91D397D9019C91D701DC965B
:1027D0008C918923D9018C93D701D2962D913C916C
:1027E000D397D9019C91D701D8968C91892BD90187
:1027F0008C93D701D0962D913C91D197D9019C9182
:10280000D701DB968C918923D9018C9312B883E58B
:1028100088B9D701D2962D913C91D397D9019C913B
:10282000D701DC968C918923D9018C93D701D2965C
:102830002D913C91D397D9019C91D701D8968C9139
:10284000892BD9018C93D701D0962D913C91D197AA
:10285000D9019C91D701D7968C91892BD9018C9362
:1028600012B908B9D701D2962D913C91D397D901CD
:102870009C91D701DC968C918923D9018C93D70147
:10288000D2962D913C91D397D9019C91D701D8969E
:102890008C91892BD9018C93D701D0962D913C91A5
:1028A000D197D9019C91D701DB968C918923D901CD
:1028B0008C9312B880E288B9D701D2962D913C91C1
:1028C000D397D9019C91D701DC968C918923D901AA
:1028D0008C93D701D2962D913C91D397D9019C919D
:1028E000D701D8968C91892BD9018C93D701D0969A
:1028F0002D913C91D197D9019C91D701D7968C917C
:10290000892BD9018C93C2B8D8B8D701D2962D9112
:102910003C91D397D9019C91D701DC968C91892366
:10292000D9018C93D701D2962D913C91D397D9019F
:102930009C91D701D8968C91892BD9018C93D70182
:10294000D0962D913C91D197D9019C91D701DB96DE
:102950008C918923D9018C9312B881E288B9D7016F
:10296000D2962D913C91D397D9019C91D701DC96B9
:102970008C918923D9018C93D701D2962D913C91CA
:10298000D397D9019C91D701D8968C91892BD901E5
:102990008C93D701D0962D913C91D197D9019C91E0
:1029A000D701D7968C91892BD9018C93F2B9E8B9CC
:1029B000D701E8C1019709F0F9C1D701D096ED918F
:1029C000FC91D1979081DB968C91DB978923808352
:1029D00082E088B9D296ED91FC91D3979081DC96F4
:1029E0008C91DC9789238083D296ED91FC91D397CB
:1029F0009081D8968C91D897892B8083D096ED9131
:102A0000FC91D1979081D7968C91D797892B808311
:102A100078B9D296ED91FC91D3979081DC968C9108
:102A2000DC9789238083D296ED91FC91D397908196
:102A3000D8968C91D897892B8083D096ED91FC9174
:102A4000D1979081DB968C91DB978923808383E0FB
:102A500088B9D296ED91FC91D3979081DC968C91B8
:102A6000DC9789238083D296ED91FC91D397908156
:102A7000D8968C91D897892B8083D096ED91FC9134
:102A8000D1979081D7968C91D797892B808368B9FD
:102A9000D296ED91FC91D3979081DC968C91DC9746
:102AA00089238083D296ED91FC91D3979081D8961B
:102AB0008C91D897892B8083D096ED91FC91D197FA
:102AC0009081DB968C91DB978923808386E088B99F
:102AD000D296ED91FC91D3979081DC968C91DC9706
:102AE00089238083D296ED91FC91D3979081D896DB
:102AF0008C91D897892B8083D096ED91FC91D197BA
:102B00009081D7968C91D797892B808358B9D2968C
:102B1000ED91FC91D3979081DC968C91DC97892381
:102B20008083D296ED91FC91D3979081D8968C9129
:102B3000D897892B8083D096ED91FC91D197908185
:102B4000DB968C91DB978923808387E088B9D296C6
:102B5000ED91FC91D3979081DC968C91DC97892341
:102B60008083D296ED91FC91D3979081D8968C91E9
:102B7000D897892B8083D096ED91FC91D197908145
:102B8000D7968C91D797892B808348B9D296ED91AF
:102B9000FC91D3979081DC968C91DC97892380837C
:102BA000D296ED91FC91D3979081D8968C91D8973D
:102BB000892B8083D096ED91FC91D1979081DB9603
:102BC0008C91DB978923808384E088B9D296ED913C
:102BD000FC91D3979081DC968C91DC97892380833C
:102BE000D296ED91FC91D3979081D8968C91D897FD
:102BF000892B8083D096ED91FC91D1979081D796C7
:102C00008C91D797892B808338B9D296ED91FC911E
:102C1000D3979081DC968C91DC9789238083D29620
:102C2000ED91FC91D3979081D8968C91D897892B70
:102C30008083D096ED91FC91D1979081DB968C9119
:102C4000DB978923808385E088B9D296ED91FC914A
:102C5000D3979081DC968C91DC9789238083D296E0
:102C6000ED91FC91D3979081D8968C91D897892B30
:102C70008083D096ED91FC91D1979081D7968C91DD
:102C8000D797892B808328B9D296ED91FC91D39761
:102C90009081DC968C91DC9789238083D296ED918C
:102CA000FC91D3979081D8968C91D897892B80836B
:102CB000D096ED91FC91D1979081DB968C91DB972A
:102CC0008923808388E088B9D296ED91FC91D397CF
:102CD0009081DC968C91DC9789238083D296ED914C
:102CE000FC91D3979081D8968C91D897892B80832B
:102CF000D096ED91FC91D1979081D7968C91D797F2
:102D0000892B808318B9D296ED91FC91D39790814D
:102D1000DC968C91DC9789238083D296ED91FC918F
:102D2000D3979081D8968C91D897892B8083D09611
:102D3000ED91FC91D1979081DB968C91DB97892363
:102D4000808389E088B9D296ED91FC91D3979081E8
:102D5000DC968C91DC9789238083D296ED91FC914F
:102D6000D3979081D8968C91D897892B8083D096D1
:102D7000ED91FC91D1979081D7968C91D797892B23
:102D8000808308B9D296ED91FC91D3979081DC961F
:102D90008C91DC9789238083D296ED91FC91D39717
:102DA0009081D8968C91892B80831CC07D836E8303
:102DB0003F83288759834A831B830C83F701648DE3
:102DC000758D24E0AE014B5F5F4FC70144DBD70137
:102DD0005E966D917C915F9724E0AE014F5F5F4FEF
:102DE000C70139DBD7019E96ED91FC919F979081A9
:102DF000D6968C91892B808328960FB6F894DEBFE7
:102E00000FBECDBFDF91CF911F910F91FF90EF903B
:102E1000DF90CF90BF90AF900895CF93DF93CFEE28
:102E2000D4E0FE01849160E00E94CB392196F4E069
:102E3000C43FDF07B1F7DF91CF9108957F928F9262
:102E40009F92AF92BF92CF92DF92EF92FF920F9339
:102E50001F93CF93DF93CDB7DEB7C15FD1400FB6DD
:102E6000F894DEBF0FBECDBF8C0123ED31E0629F31
:102E7000C001639F900D729F900D1124BC01665498
:102E80007A4F43ED51E0CE0101960E94DE4CCD52C7
:102E9000DF4F8881C35DD04090E08017910709F033
:102EA0004BC07E0181E2E80EF11CA12CB12C00E0A8
:102EB00010E096E9C92E95E0D92EC354DF4F288142
:102EC000CD5BD04030E0A216B30694F58EE1882E9B
:102ED00085E0982E48E150E0B401CE018C529E4F1F
:102EE0000E94DE4CB701CE0184519E4F0E948F3963
:102EF000BE016C527E4FCE0184519E4F0E94C84944
:102F0000782ECE0184519E4F0E946939772019F0A6
:102F10000F5F1F4F06C088E1880E911CC814D904AA
:102F2000C9F68FEFA81AB80A8AE1E80EF11CC5CFDE
:102F300081E00217130709F080E0CF50DE4F0FB693
:102F4000F894DEBF0FBECDBFDF91CF911F910F91DF
:102F5000FF90EF90DF90CF90BF90AF909F908F90B9
:102F60007F900895AF92BF92CF92DF92EF92FF923F
:102F70000F931F93CF93DF935C017B0100E010E080
:102F8000C0E0D0E089EBC82E85E0D82EF601849110
:102F900090E08017910744F0B801C5014FDF81111F
:102FA00021960F5F1F4FF2CFCE01CE15DF050CF437
:102FB000C701DF91CF911F910F91FF90EF90DF90AC
:102FC000CF90BF90AF900895EF92FF920F931F9311
:102FD000CF93DF938C01C0E0D0E089EBE82E85E051
:102FE000F82EF701849190E08C179D073CF0BE010C
:102FF000C80124DF811103C02196F3CF80E0DF9167
:10300000CF911F910F91FF90EF900895AF92BF92D3
:10301000CF92DF92EF92FF920F931F93CF93DF93A4
:10302000CDB7DEB7C65AD3400FB6F894DEBF0FBE99
:10303000CDBF5B017A018C010150110917FD8B0195
:1030400083ED91E0089FB001099F700D189F700DEE
:10305000112466547A4F43ED51E0CE018C529E4FBD
:103060000E94DE4C83EDC82EDD24D394CA55DD4F7B
:103070008881C65AD24090E08E159F0529F4B80188
:10308000C701DCDE811120C00150110917FD1AC0F3
:103090000C9DB0010D9D700D1C9D700D112466548A
:1030A0007A4F43ED51E0CE0101960E94DE4CFE01C5
:1030B0003196DE01AC52BE4FC60101900D920197D0
:1030C000E1F7D4CF8501E4CFC801CA55DC4F0FB674
:1030D000F894DEBF0FBECDBFDF91CF911F910F914E
:1030E000FF90EF90DF90CF90BF90AF900895AF9298
:1030F000BF92CF92DF92EF92FF920F931F93CF93E5
:10310000DF93CDB7DEB7C65AD3400FB6F894DEBF13
:103110000FBECDBF7B016A018C010F5F1F4F60178F
:10312000710714F400E010E083ED91E0089FB00116
:10313000099F700D189F700D112466547A4F43ED4E
:1031400051E0CE018C529E4F0E94DE4C83EDA82EA2
:10315000BB24B394CA55DD4F8881C65AD24090E053
:103160008C159D0529F4B801C60168DE811122C0C5
:103170000F5F1F4FE016F106D4F00A9DB0010B9DC2
:10318000700D1A9D700D112466547A4F43ED51E075
:10319000CE0101960E94DE4CFE013196DE01AC525A
:1031A000BE4FC50101900D920197E1F7D3CF00E02A
:1031B00010E0E3CFC801CA55DC4F0FB6F894DEBF6C
:1031C0000FBECDBFDF91CF911F910F91FF90EF9078
:1031D000DF90CF90BF90AF900895CF93DF93CDB79E
:1031E000DEB7CE59D1090FB6F894DEBF0FBECDBF02
:1031F00060E08DE00E944C3A61E08CE00E944C3A25
:1032000060E08BE00E944C3A61E08AE00E944C3A18
:1032100060E089E00E944C3A61E088E00E944C3A0C
:103220000FEE14E0F801849161E00E944C3A0F5FC8
:103230001F4FF4E0043F1F07A9F782E090E00E94CF
:10324000954982E090E00E94954982E090E00E94DA
:10325000954980E098EF2A969FAF8EAF2A9720EE8F
:1032600037E028963FAF2EAF28972C969FAF8EAFB2
:103270002C9781E02D968FAF2D972E961FAE2E970F
:1032800087E292E022969FAF8EAF229789E2EF9677
:103290008FAFEF97E7E4FEE1E491F0E0EE0FFF1F60
:1032A000E551F24EA591B491E096BFAFAEAFE09775
:1032B000E5E4FEE1E491F0E0EE0FFF1FE551F24E90
:1032C00085919491E2969FAF8EAFE297E6E4FEE19E
:1032D000E491F0E0EE0FFF1FE551F24E85919491DD
:1032E000E4969FAF8EAFE497EBE4FEE1E491F0E06B
:1032F000EE0FFF1FE551F24E85919491E6969FAF38
:103300008EAFE697EDE8FEE13491E7963FAFE797A1
:10331000EBE8FEE12491E8962FAFE897ECE8FEE1B8
:103320009491E9969FAFE997E1E9FEE18491EA96ED
:103330008FAFEA97432F4095EB964FAFEB97E22F75
:10334000E095EC96EFAFEC97E92FE095ED96EFAFB7
:10335000ED97E82FE095EE96EFAFEE97EC91E32B2B
:10336000EC93E296EEADFFADE2979081E8968FADDB
:10337000E897892B8083E496EEADFFADE4979081CA
:10338000E9968FADE997892B8083E696EEADFFAD88
:10339000E6979081EA968FADEA97892B808361E06A
:1033A00088E20E944C3A61E086E20E944C3A61E079
:1033B00087E20E944C3A61E08CE20E944C3A61E064
:1033C00089E20E94CB3961E089E20E944C3A68961A
:1033D0001FAE1EAE689786E894E96C969FAF8EAFDD
:1033E0006C9780E491E060969FAF8EAF609780EE1F
:1033F00091E062969FAF8EAF62978FEF87B981B9E8
:1034000060968EAD9FAD609764969FAF8EAF6497C8
:1034100062968EAD9FAD629766969FAF8EAF6697B0
:10342000CE01805C9F4F0E94F9396C968EAD9FADA6
:103430006C970196F1F540E064E070E0CE01805CAD
:103440009F4F0E944338892B61F441E064E070E0B3
:10345000CE01805C9F4F0E9443388115904809F44B
:10346000C4C541E063ED70E0CE01805C9F4F0E94D7
:1034700043388134E3E99E0781F08638F4E99F07F9
:1034800079F08838944979F040E060E070E0CE014E
:10349000805C9F4F0E94433808C081E493E905C0D7
:1034A00086E894E902C088E894E96C969FAF8EAFF5
:1034B0006C976C966EAC7FAC6C97CE01805C9F4F26
:1034C0000E94F93968EC70E080E090E00E940F40C3
:1034D00088E2681683E9780609F477C0C8F4F5E352
:1034E0006F16F7E77F0609F432C230F485E76816F5
:1034F000780609F479C168C2E0E96E167E0609F41F
:103500002FC1F5E26F16F3E97F0609F45EC05CC2D5
:1035100026E8621624E9720609F49DC108F049C044
:10352000E1E46E16E3E97E0609F4DBC0F1E86F160C
:10353000F4E97F0609F048C288E090E06A969FAF00
:103540008EAF6A978AE290E06E969FAF8EAF6E97CD
:103550008BE290E0A0969FAF8EAFA0978CE290E0B8
:10356000A2969FAF8EAFA2978EE290E0A4969FAFF7
:103570008EAFA49783E390E0A6969FAF8EAFA697F9
:1035800087E390E0A8969FAF8EAFA89786E390E080
:10359000AA969FAF8EAFAA97AC961FAE1EAEAC9701
:1035A000AE961FAE1EAEAE9740E450E067E871E005
:1035B00015C128E8621624E9720609F489C185E973
:1035C0006816780609F410C1FFC16A961FAE1EAED8
:1035D0006A976E961FAE1EAE6E97A0961FAE1EAE79
:1035E000A09782E290E0A2969FAF8EAFA297A4969A
:1035F0009FAF8EAFA49781E690E0A6969FAF8EAF67
:10360000A6978AE690E0A8969FAF8EAFA89783E032
:1036100090E0AA969FAF8EAFAA9781E090E0AC961B
:103620009FAF8EAFAC97AE961FAE1EAEAE9703EBBC
:1036300013E0F801859194910C5F1F4FF8013297C8
:10364000659174918F3FEFEF9E0729F480E090E041
:103650000E940F4040C0E296EEADFFADE297308190
:10366000EC962FADEC972323208392B988B9E4968A
:10367000EEADFFADE4979081ED968FADED97892388
:103680008083E496EEADFFADE4979081E9968FAD2F
:10369000E997892B8083E296EEADFFADE2979081AA
:1036A000E8968FADE897892B808372B968B9E49664
:1036B000EEADFFADE4979081ED968FADED97892348
:1036C0008083E496EEADFFADE4979081E9968FADEF
:1036D000E997892B8083F4E00F371F0709F0A9CF02
:1036E00079C182E090E06A969FAF8EAF6A978AE2D6
:1036F00090E06E969FAF8EAF6E978BE290E0A096B3
:103700009FAF8EAFA0978CE290E0A2969FAF8EAF56
:10371000A2978EE290E0A4969FAF8EAFA49783E32A
:1037200090E0A6969FAF8EAFA69787E390E0A8960D
:103730009FAF8EAFA89786E390E0AA969FAF8EAF1B
:10374000AA97AC961FAE1EAEAC9781E090E0AE9605
:103750009FAF8EAFAE974AE750E069E373E03EC09B
:1037600083E090E06A969FAF8EAF6A978AE290E01E
:103770006E969FAF8EAF6E978BE290E0A0969FAF54
:103780008EAFA0978CE290E0A2969FAF8EAFA297EB
:103790008EE290E0A4969FAF8EAFA49783E390E073
:1037A000A6969FAF8EAFA69787E390E0A8969FAFAF
:1037B0008EAFA89786E390E0AA969FAF8EAFAA97A8
:1037C00081E090E0AC969FAF8EAFAC97AE969FAF86
:1037D0008EAFAE9746E450E063EF72E0CE01805CBE
:1037E0009F4F0E94F137F6C081E090E06A969FAF4C
:1037F0008EAF6A976E961FAE1EAE6E97A0961FAEE6
:103800001EAEA09722E230E0A2963FAF2EAFA29765
:10381000A4963FAF2EAFA4972EE030E0A6963FAF20
:103820002EAFA69724E130E0A8963FAF2EAFA89721
:1038300026E130E0AA963FAF2EAFAA97AC969FAF95
:103840008EAFAC97AE969FAF8EAFAE974FE750E07E
:1038500064E772E0C3CF85E090E06A969FAF8EAFD9
:103860006A978AE290E06E969FAF8EAF6E978BE27A
:1038700090E0A0969FAF8EAFA0978CE290E0A296CA
:103880009FAF8EAFA2978EE290E0A4969FAF8EAFCF
:10389000A49783E390E0A6969FAF8EAFA69787E3A9
:1038A00090E0A8969FAF8EAFA89786E390E0AA9687
:1038B0009FAF8EAFAA97AC961FAE1EAEAC97AE96DA
:1038C0001FAE1EAEAE9748E550E06CE172E086CFC9
:1038D00087E090E06A969FAF8EAF6A978AE290E0A9
:1038E0006E969FAF8EAF6E978BE290E0A0969FAFE3
:1038F0008EAFA0978CE290E0A2969FAF8EAFA2977A
:103900008EE290E0A4969FAF8EAFA49783E390E001
:10391000A6969FAF8EAFA69787E390E0A8969FAF3D
:103920008EAFA89786E390E0AA969FAF8EAFAA9736
:10393000AC961FAE1EAEAC9781E090E0AE969FAF06
:103940008EAFAE9745E550E067EC71E047CF86E07B
:1039500090E06A969FAF8EAF6A978AE290E06E968B
:103960009FAF8EAF6E978BE290E0A0969FAF8EAF29
:10397000A0978CE290E0A2969FAF8EAFA2978EE2C6
:1039800090E0A4969FAF8EAFA49783E390E0A696B5
:103990009FAF8EAFA69787E390E0A8969FAF8EAFBC
:1039A000A89786E390E0AA969FAF8EAFAA97AC96B1
:1039B0001FAE1EAEAC97AE961FAE1EAEAE974BE5D9
:1039C00050E06CE271E00ACF8FEF90E06A969FAF13
:1039D0008EAF6A9767966FAD6797CE01805C9F4FF9
:1039E0000E946335E096EEADFFADE0979081EB96D7
:1039F0008FADEB9789238083AB968FADAB976A969B
:103A00002EAD3FAD6A97E296EEADFFADE297211580
:103A1000310539F52081EC969FADEC979223908388
:103A200091E698B9E496EEADFFADE4972081ED966E
:103A30009FADED9792239083E496EEADFFADE497B2
:103A40002081E9969FADE997922B9083E296EEADA7
:103A5000FFADE2972081E8969FADE897922B908387
:103A60002FC02130310509F03FC02081EC969FAD79
:103A7000EC979223908391E098B9E496EEADFFAD78
:103A8000E4972081ED969FADED9792239083E49685
:103A9000EEADFFADE4972081E9969FADE997922BBB
:103AA0009083E296EEADFFADE2972081E8969FAD60
:103AB000E897922B9083811102C08AE001C088E0D0
:103AC00088B9E496EEADFFADE4979081ED968FADA9
:103AD000ED9789238083E496EEADFFADE497908166
:103AE000E9968FADE99728C02081EC969FADEC97C1
:103AF00092239083811102C080E201C081E288B9E3
:103B0000E496EEADFFADE4979081ED968FADED9725
:103B100089238083E496EEADFFADE4979081E9962A
:103B20008FADE997892B8083E296EEADFFADE297EA
:103B30009081E8968FADE897892B8083E096EEAD73
:103B4000FFADE0979081E7968FADE797892B808353
:103B500061E0CE01805C9F4F0E94633581E02E962C
:103B60008FAF2E97BE01605C7F4FCE0101960E9401
:103B7000CD48CE0101960E945D4300E010E0612C2B
:103B8000712C65EC462E6DE1562EF201849190E089
:103B9000801791074CF060E070E0C801E3D9680E2F
:103BA000791E0F5F1F4FF1CFC158DF4F1982188266
:103BB000CF57D040CF57DF4F19821882C158D0401D
:103BC00030EE232E33243394CD57DF4F39822882B1
:103BD000C358D04044E6442E512CCB57DF4F598276
:103BE0004882C558D04068EB74E0CE0189579F4F9A
:103BF0000E946E39BE01605C7F4FCE0101960E942B
:103C0000CD481F921F9255E0852E912CC158DF4F51
:103C1000A880CF57D040C058DF4FB880C058D040A0
:103C2000CF57DF4FC880C158D040CE57DF4FD88024
:103C3000C258D040CD57DF4FE880C358D040CC5752
:103C4000DF4FF880C458D040CB57DF4F0881C558AC
:103C5000D040CA57DF4F1881C658D0409E0129571F
:103C60003F4F40E050E06FE573E0CE0101960E94C7
:103C7000364BCE0189579F4F0E946939C158DF4F9B
:103C800019821882CF57D040CF57DF4F59824882D0
:103C9000C158D040CD57DF4F39822882C358D04019
:103CA00088EC90E0CB57DF4F99838883C558D0408C
:103CB000E9EBF5E08491CD56DF4F19821882C359A4
:103CC000D040CB56DF4F19821882C559D040C95613
:103CD000DF4F19821882C759D04090E04AE0BE01F8
:103CE0006F5F7F4F01960E94F74CBE016F5F7F4F61
:103CF000CE018D569F4F0E945439B301CE01895792
:103D00009F4F0E943143BE0169577F4FCE018357B9
:103D10009F4F0E94763964EB74E0CE0183579F4F2A
:103D20000E94A1380F900F90811105C0CE018357DA
:103D30009F4F0E94FD38C956DF4F48815981C759AE
:103D4000D040CD56DF4F68817981C359D040CE0134
:103D500083579F4F0E94D038811105C0CE018357F1
:103D60009F4F0E94FD38BE0163577F4FCE0187569B
:103D70009F4F0E947639BE01605C7F4FCE01019655
:103D80000E94CD481F921F9285E0882E912CC15829
:103D9000DF4FA880CF57D040C058DF4FB880C05801
:103DA000D040CF57DF4FC880C158D040CE57DF4FEB
:103DB000D880C258D040CD57DF4FE880C358D0409C
:103DC000CC57DF4FF880C458D040CB57DF4F088125
:103DD000C558D040CA57DF4F1881C658D0409E0101
:103DE00027563F4F40E050E06FE573E0CE0101966B
:103DF0000E94364BCE0187569F4F0E946939CE01F3
:103E000083579F4F0E946939CE0189579F4F0E9467
:103E10006939CE018D569F4F0E946939C158DF4FD5
:103E200019821882CF57D04088EC90E0CF57DF4FEF
:103E300099838883C158D04090EE692E772473947B
:103E4000CD57DF4F79826882C358D0402AEF422E87
:103E5000512CCB57DF4F59824882C558D0406CE96E
:103E600074E0CE0189579F4F0E946E39BE01605C9D
:103E70007F4FCE0101960E94CD481F921F92C158DC
:103E8000DF4FA880CF57D040C058DF4FB880C05810
:103E9000D040CF57DF4FC880C158D040CE57DF4FFA
:103EA000D880C258D040CD57DF4FE880C358D040AB
:103EB000CC57DF4FF880C458D040CB57DF4F088134
:103EC000C558D040CA57DF4F1881C658D0409E0110
:103ED00029573F4F40E050E06FE573E0CE01019677
:103EE0000E94364BCE0189579F4F0E946939C158B5
:103EF000DF4F19821882CF57D040CF57DF4F5982FA
:103F00004882C158D040CD57DF4F79826882C3586C
:103F1000D04080E491E0CB57DF4F99838883C55828
:103F2000D0406FE774E0CE0189579F4F0E946E39F1
:103F3000BE01605C7F4FCE0101960E94CD481F926A
:103F40001F92C158DF4FA880CF57D040C058DF4FD5
:103F5000B880C058D040CF57DF4FC880C158D0403C
:103F6000CE57DF4FD880C258D040CD57DF4FE880C2
:103F7000C358D040CC57DF4FF880C458D040CB57FF
:103F8000DF4F0881C558D040CA57DF4F1881C65847
:103F9000D0409E0129573F4F40E050E06FE573E06D
:103FA000CE0101960E94364BCE0189579F4F0E9449
:103FB00069390F900F900F900F900F900F908DE038
:103FC0000E94A339892BB1F18BE00E94A339892B80
:103FD00089F189E00E94A339892B61F164E670E0E0
:103FE00080E090E00E940F40EACF8091060290911D
:103FF0000702A091080289839A83AB8323E0AE0174
:104000004F5F5F4F69EB70E0CE01805C9F4F0E9475
:104010002B1240E060ED70E0CE01805C9F4F0E946B
:10402000433841E060ED70E0CE01805C9F4F0E941C
:10403000433817CABE01605C7F4FCE0101960E94D3
:10404000CD48CE01019600D0CF93DF93CDB7DEB738
:10405000C550D6400FB6F894DEBF0FBECDBFCB52D1
:10406000DA4F99838883C55DD540CE50DA4F1882E8
:10407000C25FD540C351DA4F1882CD5ED540C650DD
:10408000DA4F188219821A821B82CA5FD540CA5041
:10409000DA4F188219821A821B82C65FD540CD5131
:1040A000DA4F1882C35ED540C752DA4F1882C95D15
:1040B000D540C152DA4F1882CF5DD540CF51DA4F8B
:1040C0001882C15ED54010E0C851DA4F1882C85E30
:1040D000D540C452DA4F1882CC5DD540C552DA4F74
:1040E0001882CB5DD54001E0CB50DA4F0883C55F25
:1040F000D54021E0CC50DA4F2883C45FD54031E071
:10410000CD50DA4F3883C35FD540612C712C312CF0
:10411000CD50DA4F4881C35FD5408DE0411111C0C9
:104120000E94A339892BD9F461E08CE00E94CB393D
:1041300081E0CD50DA4F8883C35FD5403324339478
:104140000EC00E94A339892B51F060E08CE00E94E0
:10415000CB39CD50DA4F1882C35FD540312CCC50CB
:10416000DA4F9881C45FD5408BE0911111C00E9455
:10417000A339892BD9F461E08AE00E94CB39E1E0D0
:10418000CC50DA4FE883C45FD540772473940EC0D7
:104190000E94A339892B51F060E08AE00E94CB395C
:1041A000CC50DA4F1882C45FD540712CCB50DA4F17
:1041B000F881C55FD54089E0F11111C00E94A33993
:1041C000892BD9F461E088E00E94CB3901E0CB5023
:1041D000DA4F0883C55FD540662463940EC00E9401
:1041E000A339892B51F060E088E00E94CB39CB5095
:1041F000DA4F1882C55FD540612C111121C066ECE1
:104200007DE1CE0189559C4F0E946E39CB52DA4F29
:1042100068817981C55DD540CE018C529E4F0E9448
:10422000CD4841E0BE0169557C4FCE018C529E4F76
:104230000E947343CE0189559C4F0E94693916C074
:10424000CF51DA4F2881C15ED540222321F01130B1
:1042500009F02AC30BC0113009F026C3311033C056
:1042600061100C94C334711031C0B3C595ECE92EC4
:104270009DE1F92EF7012491C552DA4FF881CB5D0B
:10428000D5408F2F90E0019630E02817390714F4BD
:1042900080E090E0C552DA4F8883CB5DD540C552AF
:1042A000DA4FC880CB5DD5400C2D10E0C8010E94CC
:1042B000E417882321F0772009F498C007C0F7019C
:1042C0002491C801E0CF772009F492C0C552DA4F9B
:1042D000C880CB5DD540F5E1CF9EB00111246F5869
:1042E000724E45E150E0CE0189559C4F0E94DE4C54
:1042F000BE0169557C4FCE0186589A4F0E948F3976
:10430000CB52DA4F68817981C55DD540CE018C52A0
:104310009E4F0E94CD4840E0BE0166587A4FCE01C4
:104320008C529E4F0E947343CE0186589A4F0E9432
:10433000693983ED91E0C452DA4FD880CC5DD54025
:10434000D89EB001D99E700D112466547A4F43ED6A
:1043500051E0CE018C529E4F0E94DE4C89EBE82E3C
:1043600085E0F82E03ED11E0CA55DD4F8881C65A6D
:10437000D240C552DA4F2881CB5DD540821769F112
:10438000F7012491C452DA4FF881CC5DD5408F2FCC
:1043900090E0019630E02817390714F480E090E0AF
:1043A000C452DA4F8883CC5DD540809FB001819F95
:1043B000700D112466547A4F43ED51E0CE01019601
:1043C0000E94DE4CFE013196DE01AC52BE4FC801A8
:1043D00001900D920197E1F7C7CFCF51DA4F1882C4
:1043E000C15ED540712C612C312C77C2332049F14C
:1043F00005ECE02E0DE1F02EF7012491C552DA4FC5
:10440000F881CB5DD5408F2F90E0019630E02817E2
:10441000390714F480E090E0C552DA4F8883CB5D11
:10442000D540C552DA4FC880CB5DD5400C2D10E089
:10443000C8010E94E417811104C0F7012491C8014A
:10444000E4CF662039F115ECE12E1DE1F12EF701E4
:104450002491C552DA4FF881CB5DD5408F2F90E083
:10446000019708F4822FC552DA4F8883CB5DD5407F
:10447000C552DA4F2881CB5DD540022F10E0C8012C
:104480000E94E417811106C0F7012491C801019729
:1044900050F7E8CFC552DA4FC880CB5DD5402C2C01
:1044A000312C310106E910E0412C512CE5ECFDE105
:1044B0008491869590E0481659060CF0AAC0849124
:1044C000F1E06F1A710810F4682E712CC3010E947C
:1044D000E417811103C0E5ECFDE1F1CF35E1369D34
:1044E000B001379D700D11246F58724E45E150E0B8
:1044F000CE018C529E4F0E94DE4CBE016C527E4F0C
:10450000CE0187549A4F0E948F39C8014496CF51EB
:10451000DA4F99838883C15ED540C955DC4F198233
:104520001882C75AD340C755DC4F19830883C95A2C
:10453000D340E0EFF0E0C555DC4FF983E883CB5A78
:10454000D340C355DC4F99838883CD5AD340BE01F5
:1045500067547A4FCE0186589A4F0E947639CB52D3
:10456000DA4F68817981C55DD540CE018C529E4F6E
:104570000E94CD481F921F92B2E08B2E912CC955FC
:10458000DC4FA880C75AD340C855DC4FB880C85A02
:10459000D340C755DC4FC880C95AD340C655DC4FFD
:1045A000D880CA5AD340C555DC4FE880CB5AD34097
:1045B000C455DC4FF880CC5AD340C355DC4F08813A
:1045C000CD5AD340C255DC4F1881CE5AD3409E01FC
:1045D00026583A4F40E050E06EEA7AE3CE018C5222
:1045E0009E4F0E94364BCE0186589A4F0E946939E1
:1045F000CE0187549A4F0E946939FFEF4F1A5F0A24
:104600000F900F90CF51DA4F08811981C15ED540CC
:104610004DCFC658DA4F19821882CA57D54084E662
:1046200090E0C458DA4F99838883CC57D54080EE08
:1046300091E0C258DA4F99838883CE57D54086E9F6
:1046400090E0C058DA4F99838883C058D54085E1FF
:10465000829DB001839D700D11246F58724E45E10B
:1046600050E0CE0189559C4F0E94DE4C3E0107E48C
:10467000601A0AEF700ABE0169557C4FC3010E949F
:104680008F39CB52DA4F68817981C55DD540CE0133
:104690008C529E4F0E94CD481F921F92A5E08A2EF9
:1046A000912CC658DA4FA880CA57D540C558DA4F62
:1046B000B880CB57D540C458DA4FC880CC57D540C6
:1046C000C358DA4FD880CD57D540C258DA4FE8806A
:1046D000CE57D540C158DA4FF880CF57D540C05893
:1046E000DA4F0881C058D540CF57DA4F1881C158EA
:1046F000D540930140E050E06FE573E0CE018C526D
:104700009E4F0E94364BC3010E9469390F900F9053
:1047100006E910E0CF51DA4F19821882C15ED54008
:10472000562C472CE5ECFDE18491869590E0CF5125
:10473000DA4FC880D980C15ED540C816D9060CF0C2
:1047400036C384912FEF221A320A90E08215930526
:1047500014F4212C312CC1010E94E417811107C0EF
:10476000E5ECFDE18491FFEF2F1A3F0AEECFE5E182
:10477000CE2EC29CB001C39C700D11246F58724E96
:1047800045E150E0CE018C529E4F0E94DE4CBE01AE
:104790006C527E4F852D942D0E948F39380124E173
:1047A000620E711C80EF90E0C955DC4F99838883BD
:1047B000C75AD340C755DC4F19830883C95AD34021
:1047C000E0EEF1E0C555DC4FF983E883CB5AD340E6
:1047D000C355DC4F79826882CD5AD340652D742D44
:1047E000CE0186589A4F0E947639CB52DA4F6881B3
:1047F0007981C55DD540CE018C529E4F0E94CD4837
:104800001F921F92F2E08F2E912CC955DC4FA88089
:10481000C75AD340C855DC4FB880C85AD340C75593
:10482000DC4FC880C95AD340C655DC4FD880CA5A1D
:10483000D340C555DC4FE880CB5AD340C455DC4F3C
:10484000F880CC5AD340C355DC4F0881CD5AD340B1
:10485000C255DC4F1881CE5AD3409E0126583A4F9C
:1048600040E050E06EEA7AE3CE018C529E4F0E9407
:10487000364BCE0186589A4F0E946939852D942D6A
:104880000E946939CF51DA4F08811981C15ED54044
:104890000F5F1F4FCF51DA4F19830883C15ED54098
:1048A0000F900F9083013ECFC152DA4F2881CF5D28
:1048B000D540222321F0123009F08BC20EC01230F5
:1048C00009F087C23110A1C261100C94CF34772057
:1048D00011F40C94DE34712C9EC2E9EBF5E0649186
:1048E000C552DA4F3881CB5DD540432F50E070E0A0
:1048F000C452DA4FE881CC5DD5408E2F90E00E9403
:104900007718C452DA4F8883CC5DD540711077C2D6
:10491000332009F440C0662049F16EEA75E0CE010B
:1049200089559C4F0E946E39CB52DA4F688179814C
:10493000C55DD540CE018C529E4F0E94CD4840E0CF
:10494000BE0169557C4FCE018C529E4F0E9473432D
:10495000CE0189559C4F0E946939F1E0CF51DA4F61
:10496000F883C15ED54011E00C94DE34E9EBF5E04C
:104970006491C552DA4FC880CB5DD5404C2D50E0D4
:1049800070E0C452DA4FD880CC5DD5408D2D90E0D8
:104990000E94771816C06620C9F0E9EBF5E0649133
:1049A000C552DA4FE880CB5DD5404E2D50E070E027
:1049B000C452DA4FF880CC5DD5408F2D90E00E9434
:1049C0000618C452DA4F8883CC5DD540C452DA4F02
:1049D0001881CC5DD540012F10E0C152DA4F198308
:1049E0000883CF5DD540280106E910E0612C712CC9
:1049F000C552DA4F3881CB5DD540232F30E0C95204
:104A0000DA4F39832883C75DD54063E070E0C9522F
:104A1000DA4F88819981C75DD5400E94B21718018D
:104A200044E1240E311C97FD0196959587956816F3
:104A300079060CF095C0E9EBF5E0649170E0C9529D
:104A4000DA4F48815981C75DD540C2010E940618DE
:104A50002C0143EDC42EDD24D3948C9DB0018D9D9B
:104A6000700D9C9D700D112466547A4F43ED51E0FA
:104A7000CE018C529E4F0E94DE4CC658DA4F1982EE
:104A80001882CA57D540C458DA4F19830883CC57C7
:104A9000D54050EFE52EF12CC258DA4FF982E8826A
:104AA000CE57D540C058DA4F39822882C058D540F9
:104AB000BE016C527E4FCE0187549A4F0E948F39AF
:104AC000CB52DA4F68817981C55DD540CE018955D9
:104AD0009C4F0E94CD481F921F9262E0862E912C1F
:104AE000C658DA4FA880CA57D540C558DA4FB880A3
:104AF000CB57D540C458DA4FC880CC57D540C3589F
:104B0000DA4FD880CD57D540C258DA4FE880CE571B
:104B1000D540C158DA4FF880CF57D540C058DA4F4A
:104B20000881C058D540CF57DA4F1881C158D540B9
:104B30009E0127543A4F40E050E06EEA7AE3CE01FE
:104B400089559C4F0E94364BCE0187549A4F0E9444
:104B500069390FEF601A700A0F900F90810155CFDD
:104B600083ED91E0C152DA4F28813981CF5DD54084
:104B7000289FB001299F700D389F700D1124665435
:104B80007A4F43ED51E0CE0189559C4F0E94DE4C97
:104B9000C658DA4F19821882CA57D54084E690E089
:104BA000C458DA4F99838883CC57D54080EE91E082
:104BB000C258DA4F99838883CE57D54086E990E072
:104BC000C058DA4F99838883C058D5403E0137E4F6
:104BD000631A3AEF730ABE0169557C4FC3010E9404
:104BE0008F39CB52DA4F68817981C55DD540CE01CE
:104BF0008C529E4F0E94CD481F921F9235E0832E0B
:104C0000912CC658DA4FA880CA57D540C558DA4FFC
:104C1000B880CB57D540C458DA4FC880CC57D54060
:104C2000C358DA4FD880CD57D540C258DA4FE88004
:104C3000CE57D540C158DA4FF880CF57D540C0582D
:104C4000DA4F0881C058D540CF57DA4F1881C15884
:104C5000D540930140E050E06FE573E0CE018C5207
:104C60009E4F0E94364BC3010E9469390F900F90EE
:104C700006E910E0412C512C63E070E0C952DA4F94
:104C800088819981C75DD5400E94B217180144E11F
:104C9000240E311C97FD0196959587954816590667
:104CA0000CF075C0E9EBF5E0649170E0C952DA4FA1
:104CB00048815981C75DD540C152DA4F88819981B9
:104CC000CF5DD5400E947718C152DA4F998388830F
:104CD000CF5DD540E3EDCE2EDD24D3948C9DB00185
:104CE0008D9D700D9C9D700D112466547A4F43ED7F
:104CF00051E0CE018C529E4F0E94DE4CF0EFCF2E41
:104D0000D12CF301D182C08213830283A0EEEA2E5C
:104D1000FF24F394F582E48237822682BE016C522E
:104D20007E4FCE018F539A4F0E948F39CB52DA4F6C
:104D300068817981C55DD540CE0186589A4F0E9421
:104D4000CD481F921F92B2E08B2E912CF301A080D0
:104D5000B180C280D380E480F580068117819E01F6
:104D60002F533A4F40E050E06EEA7AE3CE01865886
:104D70009A4F0E94364BCE018F539A4F0E94693949
:104D8000FFEF4F1A5F0A0F900F90810175CFC75246
:104D9000DA4FC880C95DD540C1100C94DD34C152D2
:104DA000DA4F1882CF5DD54012E00C94B134C15275
:104DB000DA4F1881CF5DD540CF51DA4F1882C15EEE
:104DC000D540112311F40C94C934712C612C312C71
:104DD00011E0C752DA4FD880C95DD540DD2021F0FF
:104DE000133009F05DC517C0133009F059C53110F3
:104DF0000C94D73461108DC571108EC557C5C15242
:104E0000DA4F1882CF5DD54003C0772009F483CDF7
:104E1000712C612C312CCB52DA4F68817981C55DC0
:104E2000D540CE018C529E4F0E94CD48CE018C526F
:104E30009E4F0E945D4383ED91E0C452DA4FE880BB
:104E4000CC5DD540E89EB001E99E700D11246654FA
:104E50007A4F43ED51E0CE018C529E4F0E94DE4CC2
:104E6000C658DA4F19821882CA57D540C458DA4F4B
:104E700019821882CC57D54080EE91E0C258DA4FA3
:104E800099838883CE57D5405CE3452E512CC0587A
:104E9000DA4F59824882C058D5408E0107541A4FC4
:104EA000CD52DA4F19830883C35DD540BE016C52E1
:104EB0007E4FC8010E948F39CB52DA4F68817981C9
:104EC000C55DD540CE0189559C4F0E94CD481F92AB
:104ED0001F9265E0862E912CC658DA4FA880CA57DB
:104EE000D540C558DA4FB880CB57D540C458DA4FB3
:104EF000C880CC57D540C358DA4FD880CD57D5405D
:104F0000C258DA4FE880CE57D540C158DA4FF88002
:104F1000CF57D540C058DA4F0881C058D540CF5739
:104F2000DA4F1881C158D5409E0127543A4F40E0CE
:104F300050E06EEA7AE3CE0189559C4F0E94364BD1
:104F4000CE0187549A4F0E9469398AE090E0C65892
:104F5000DA4F99838883CA57D540C458DA4F5982AB
:104F60004882CC57D54086E391E0C258DA4F998306
:104F70008883CE57D540C058DA4F99838883C0586C
:104F8000D540CB52DA4F68817981C55DD540CE01DD
:104F900089559C4F0E94CD48C658DA4FC880CA57E1
:104FA000D540C558DA4FD880CB57D540C458DA4FD2
:104FB000E880CC57D540C358DA4FF880CD57D5405C
:104FC000C258DA4F0881CE57D540C158DA4F188100
:104FD000CF57D540C058DA4F2881C058D540CF5759
:104FE000DA4F3881C158D54049E452E46EE87BE697
:104FF000CE0189559C4F0E9487428E0103531A4F60
:10500000BE0169557D4FC8010E948F39CB52DA4FDE
:1050100068817981C55DD540CE0186589A4F0E943E
:10502000CD482E0129E3421A2AEF520A6CE472E0BD
:10503000C2010E948F390F900F90C752DA4F198228
:105040001882C95DD540C952DA4F19821882C75DEE
:10505000D54076E0272ECE0187549A4F2C01CF52AF
:10506000DA4F28813981C15DD540C752DA4FE881D6
:10507000F981C95DD540E217F30708F0E4C0C553D4
:10508000DA4F48815981CB5CD540249EC001259ED2
:10509000900D11240C96880F991F8931914008F4C6
:1050A0008BC0C952DA4F08811981C75DD5400A5BB0
:1050B0001F4FC352DA4F19830883CD5DD540C952C3
:1050C000DA4F88819981C75DD5408B5A9F4F8338CD
:1050D000910508F021C1C752DA4F88819981C95DD5
:1050E000D54001978217930740F4C353DA4FE88104
:1050F000F981CD5CD540309729F410925202E2E557
:10510000F2E002C0E80FF91F8081803239F063ECD1
:1051100074E0CE0189539A4F0E94A138F2011182A6
:105120001082138212821582148217821682BE01A7
:1051300069537A4FCE018F539A4F0E947639BE0140
:1051400066587A4FCE0189559C4F0E94CD48812CDC
:10515000912CF201A080B180C280D380E480F580E0
:1051600006811781C352DA4F28813981CD5DD54040
:1051700044E150E0BE016F537A4FCE0189559C4FF8
:105180000E94A34ACE018F539A4F0E9469396CE462
:1051900072E0CE0189539A4F0E945439C952DA4FB6
:1051A00008811981C75DD540015F1F4FC952DA4F91
:1051B00019830883C75DD540CF52DA4F8881998122
:1051C000C15DD540C752DA4F28813981C95DD540CC
:1051D0002817390740F4C353DA4FE881F981CD5CD1
:1051E000D540309729F410925202E2E5F2E008C06F
:1051F000C752DA4F88819981C95DD540E80FF91F00
:105200008081C955DC4F8883C75AD340C855DC4FCD
:105210001882C85AD34041E050E0BE0169557C4F26
:10522000CE0189539A4F0E94D038C752DA4FE88195
:10523000F981C95DD5403196C752DA4FF983E883C9
:10524000C95DD5400CCFC754DA4F19821882C95BAB
:10525000D540C554DA4F19821882CB5BD540C35470
:10526000DA4F19821882CD5BD540C154DA4F1982CA
:105270001882CF5BD540BE0169537A4FCE018F5360
:105280009A4F0E947639BE0166587A4FCE018955F1
:105290009C4F0E94CD48C952DA4F28813981C75DA1
:1052A000D5402A5B3F4F812C912CC754DA4FA88000
:1052B000C95BD540C654DA4FB880CA5BD540C554E7
:1052C000DA4FC880CB5BD540C454DA4FD880CC5B72
:1052D000D540C354DA4FE880CD5BD540C254DA4F95
:1052E000F880CE5BD540C154DA4F0881CF5BD54002
:1052F000C054DA4F1881C05CD54044E150E0BE0193
:105300006F537A4FCE0189559C4F0E94A34ACE011C
:105310008F539A4F0E9469398E0109531A4FC80161
:105320000E9469397E01F3E3EF1AFAEFFF0AC70121
:105330000E94693994ED492E552453944C0E5D1EFC
:1053400020E2420E511CCE018A589D4FCD52DA4FB9
:1053500099838883C35DD540E6E9F0E0C752DA4F10
:10536000F983E883C95DD5402E2CC952DA4FF88203
:10537000C75DD540C352DA4F0883CD5DD540CC51CF
:10538000DA4F1883C45ED540F201808D918D892B50
:1053900009F49CC16CE472E0822DC952DA4F988105
:1053A000C75DD5400E948F390EE115E048E150E01D
:1053B000B801CE0189559C4F0E94DE4CB201CE014E
:1053C00086589A4F0E948F39BE0169557C4FCE0195
:1053D00086589A4F0E94C849F82ECE0186589A4F97
:1053E0000E946939FF2099F048E150E0B801CE01F0
:1053F00089559C4F0E94DE4CBE0169557C4F822D21
:10540000C952DA4F9881C75DD5400E945439085E71
:105410001F4F8EEAC82E85E0D82EC016D10631F671
:10542000C658DA4F19821882CA57D540C458DA4F85
:1054300019821882CC57D540C258DA4F1982188287
:10544000CE57D540C058DA4F19821882C058D5407F
:10545000C752DA4FD880C95DD540C751DA4FD882DC
:10546000C95ED540C652DA4FE880CA5DD540C25108
:10547000DA4FE882CE5ED540622DC952DA4F78818C
:10548000C75DD540CE0187549A4F0E947639CB52E2
:10549000DA4F68817981C55DD540CE0189559C4F31
:1054A0000E94CD48812C912CC658DA4FA880CA574B
:1054B000D540C558DA4FB880CB57D540C458DA4FDD
:1054C000C880CC57D540C358DA4FD880CD57D54087
:1054D000C258DA4FE880CE57D540C158DA4FF8802D
:1054E000CF57D540C058DA4F0881C058D540CF5764
:1054F000DA4F1881C158D540C752DA4F2881398117
:10550000C95DD54044E150E0BE0167547A4FCE01F9
:1055100089559C4F0E94A34ACE0187549A4F0E94FE
:105520006939C752DA4F08811981C95DD5400C5ECF
:105530001F4FC752DA4F19830883C95DD5402CE845
:1055400030E0C658DA4F39832883CA57D540C7514F
:10555000DA4F3881C95ED540C458DA4F3883CC570A
:10556000D540C251DA4F4881CE5ED540C358DA4F9C
:105570004883CD57D54085EF90E0C258DA4F9983E4
:105580008883CE57D540C058DA4F19830883C05856
:10559000D540F201608D718DC352DA4F8881CD5DA7
:1055A000D540CC51DA4F9881C45ED5400E9431433A
:1055B000C352DA4F6881CD5DD540CC51DA4F788146
:1055C000C45ED540CE018F539A4F0E9476396CE16C
:1055D00075E0CE018F539A4F0E94A138811105C00A
:1055E000CE018F539A4F0E94FD38BE016F537A4F00
:1055F000CE0187549A4F0E947639CB52DA4F688198
:105600007981C55DD540CE0189559C4F0E94CD481A
:1056100019E4812E12E4912EC658DA4FA880CA5799
:10562000D540C558DA4FB880CB57D540C458DA4F6B
:10563000C880CC57D540C358DA4FD880CD57D54015
:10564000C258DA4FE880CE57D540C158DA4FF880BB
:10565000CF57D540C058DA4F0881C058D540CF57F2
:10566000DA4F1881C158D540C751DA4F2881C95E39
:10567000D540C251DA4F3881CE5ED5404CE850E07B
:10568000BE0167547A4FCE0189559C4F0E94A34AB0
:10569000CE0187549A4F0E946939CE018F539A4F99
:1056A0000E946939C352DA4F8881CD5DD540CC5113
:1056B000DA4F9881C45ED5400E946939822DC95263
:1056C000DA4F9881C75DD5400E946939FAE14F0EE3
:1056D000511CCD52DA4FC880D980C35DD5404C14DF
:1056E0005D0409F051CECB52DA4F68817981C55DF6
:1056F000D540CE0189559C4F0E94CD48C851DA4F04
:10570000D880C85ED5406D2D70E0CE0189559C4F84
:105710000E94FA44711000C1332009F483C066204E
:10572000D9F1C552DA4F1881CB5DD54005E1109F04
:10573000B00111246F58724E45E150E0CE018955F9
:105740009C4F0E94DE4CBE0169557C4FCE018658AD
:105750009A4F0E948F39CB52DA4F68817981C55DAB
:10576000D540CE018C529E4F0E94CD4841E0BE01F3
:1057700066587A4FCE018C529E4F0E947343CE01E1
:1057800086589A4F0E94693921E0C152DA4F288326
:10579000CF5DD54012E08AC0EDEFFEE1E491C85143
:1057A000DA4F3881C85ED540032F10E00F5F1F4FDE
:1057B000F0E0E017F10714F400E010E0C851DA4F10
:1057C0000883C85ED54083ED91E0C452DA4F48812A
:1057D000CC5DD540489FB001499F700D112466549F
:1057E0007A4F43ED51E0CE018C529E4F0E94DE4C29
:1057F000CB52DA4F68817981C55DD540CE0189559C
:105800009C4F0E94CD48B8017727CE0189559C4F07
:105810000E94FA44C752DA4F1882C95DD54013E09E
:105820000C94B234662009F440C0EDEFFEE1E4913F
:10583000C851DA4F8881C85ED540082F10E001506A
:10584000110910F40E2F10E0C851DA4F0883C85E1A
:10585000D54083ED91E0C452DA4FE881CC5DD5406C
:10586000E89FB001E99F700D112466547A4F43ED13
:1058700051E0CE018C529E4F0E94DE4CCB52DA4F4B
:1058800068817981C55DD540CE0189559C4F0E94C4
:10589000CD48B801CE0189559C4F0E94FA4405C0FD
:1058A000143011F00C94B43408C013E0C752DA4F2E
:1058B0001882C95DD5400C94B134311005C0611017
:1058C00003C0772009F496C10E940D1760E08CE0B8
:1058D0000E94CB3960E08AE00E94CB3960E088E02A
:1058E0000E94CB39CE50DA4F1882C25FD540C351E7
:1058F000DA4F1882CD5ED540CD51DA4F1882C35EA3
:10590000D540F1E0C752DA4FF883C95DD5400C9419
:10591000B034772009F489CFCB52DA4F688179818E
:10592000C55DD540CE018C529E4F0E94CD48CE0120
:105930008C529E4F0E945D43C955DC4F19821882DC
:10594000C75AD340C755DC4F19821882C95AD34071
:1059500080EE682E77247394C555DC4F7982688277
:10596000CB5AD34088EC90E0C355DC4F99838883B1
:10597000CD5AD34062E175E0CE0186589A4F0E941D
:105980006E39CB52DA4F68817981C55DD540CE0141
:105990008C529E4F0E94CD481F921F929AE0892EF2
:1059A000912CC955DC4FA880C75AD340C855DC4F4D
:1059B000B880C85AD340C755DC4FC880C95AD340B5
:1059C000C655DC4FD880CA5AD340C555DC4FE88055
:1059D000CB5AD340C455DC4FF880CC5AD340C35582
:1059E000DC4F0881CD5AD340C255DC4F1881CE5AC6
:1059F000D3409E0126583A4F40E050E06FEF7FEFD2
:105A0000CE018C529E4F0E94364BCE0186589A4F43
:105A10000E946939C955DC4F19821882C75AD34090
:105A200083E191E0C755DC4F99838883C95AD340FD
:105A3000C555DC4F79826882CB5AD34080E491E02F
:105A4000C355DC4F99838883CD5AD34065EF74E00A
:105A5000CE0186589A4F0E946E39CB52DA4F688138
:105A60007981C55DD540CE018C529E4F0E94CD48B4
:105A70001F921F92C955DC4FA880C75AD340C85502
:105A8000DC4FB880C85AD340C755DC4FC880C95ACC
:105A9000D340C655DC4FD880CA5AD340C555DC4FD9
:105AA000E880CB5AD340C455DC4FF880CC5AD34061
:105AB000C355DC4F0881CD5AD340C255DC4F188105
:105AC000CE5AD3409E0126583A4F40E050E06FEF47
:105AD0007FEFCE018C529E4F0E94364BCE018658EE
